:020000040800F2
:1000000000500020E95B0008315C0008315C00080A
:10001000315C0008315C0008315C00080000000021
:10002000000000000000000000000000315C00083B
:10003000315C000800000000315C00081F5300081C
:10004000315C0008315C0008315C0008315C00085C
:10005000315C0008315C0008655400086F540008EA
:1000600079540008835400088D540008315C00085E
:10007000315C0008315C0008315C0008315C00082C
:10008000315C0008315C0008315C0008315C00081C
:10009000315C0008315C0008315C000897540008AE
:1000A000315C0008455D0008315C0008315C0008E7
:1000B000595D00086D5D0008815D00087D5E0008E7
:1000C0008D5E00089D5E0008AD5E0008315C000892
:1000D000315C000829630008416300085963000887
:1000E000AD540008D95B0008315C00080000000036
:1000F0000000000000000000000000000000000000
:0C01000000000000000000005FF808F1A3
:10010C00034613F8012B002AFBD1181A013870474B
:10011C0080F0004002E000BF81F0004142001FBFB0
:10012C005FEA410392EA030F7FEA226C7FEA236CB9
:10013C006AD04FEA1262D2EB1363C1BFD2184140AE
:10014C0048404140B8BF5B42192B88BF704710F044
:10015C00004F40F4000020F07F4018BF404211F0E7
:10016C00004F41F4000121F07F4118BF494292EA4F
:10017C00030F3FD0A2F1010241FA03FC10EB0C007B
:10018C00C3F1200301FA03F100F0004302D5494208
:10019C0060EB4000B0F5000F13D3B0F1807F06D3B5
:1001AC0040084FEA310102F10102FE2A51D2B1F1AD
:1001BC00004F40EBC25008BF20F0010040EA0300A2
:1001CC007047490040EB000010F4000FA2F101024F
:1001DC00EDD1B0FA80FCACF1080CB2EB0C0200FAD9
:1001EC000CF0AABF00EBC25052421843BCBFD04027
:1001FC001843704792F0000F81F4000106BF80F4A1
:10020C0000000132013BB5E74FEA41037FEA226C63
:10021C0018BF7FEA236C21D092EA030F04D092F02E
:10022C00000F08BF0846704790EA010F1CBF002062
:10023C00704712F07F4F04D1400028BF40F00040BF
:10024C00704712F100723CBF00F50000704700F0DF
:10025C00004343F0FE4040F4000070477FEA226206
:10026C0016BF08467FEA23630146420206BF5FEAD7
:10027C00412390EA010F40F4800070474FF00003D7
:10028C0004E000BF10F0004348BF40425FEA000C9E
:10029C0008BF704743F0964301464FF000001CE046
:1002AC0050EA010208BF70474FF000030AE000BF9C
:1002BC0050EA010208BF704711F0004302D54042DA
:1002CC0061EB41015FEA010C02BF8446014600204C
:1002DC0043F0B64308BFA3F18053A3F50003BCFA67
:1002EC008CF2083AA3EBC25310DB01FA02FC634414
:1002FC0000FA02FCC2F12002BCF1004F20FA02F21B
:10030C0043EB020008BF20F00100704702F120020D
:10031C0001FA02FCC2F1200250EA4C0021FA02F26E
:10032C0043EB020008BF20EADC7070474FF0FF0C73
:10033C001CEAD0521EBF1CEAD15392EA0C0F93EA6E
:10034C000C0F6FD01A4480EA010C400218BF5FEA10
:10035C0041211ED04FF0006343EA501043EA511183
:10036C00A0FB01310CF00040B1F5000F3EBF49007D
:10037C0041EAD3715B0040EA010062F17F02FD2A81
:10038C001DD8B3F1004F40EBC25008BF20F0010064
:10039C00704790F0000F0CF0004C08BF49024CEA7B
:1003AC00502040EA51207F3AC2BFD2F1FF0340EA0D
:1003BC00C250704740F400004FF00003013A5DDC7E
:1003CC0012F1190FDCBF00F000407047C2F10002BF
:1003DC00410021FA02F1C2F1200200FA02FC5FEAAC
:1003EC00310040F1000053EA4C0308BF20EADC70F6
:1003FC00704792F0000F00F0004C02BF400010F468
:10040C00000F013AF9D040EA0C0093F0000F01F014
:10041C00004C02BF490011F4000F013BF9D041EA36
:10042C000C018FE70CEAD15392EA0C0F18BF93EA38
:10043C000C0F0AD030F0004C18BF31F0004CD8D162
:10044C0080EA010000F00040704790F0000F17BFE9
:10045C0090F0004F084691F0000F91F0004F14D02F
:10046C0092EA0C0F01D142020FD193EA0C0F03D187
:10047C004B0218BF084608D180EA010000F000408A
:10048C0040F0FE4040F40000704740F0FE4040F465
:10049C00400070474FF0FF0C1CEAD0521EBF1CEA04
:1004AC00D15392EA0C0F93EA0C0F69D0A2EB030222
:1004BC0080EA010C49024FEA402037D04FF08053BC
:1004CC0043EA111143EA10130CF000408B4238BF81
:1004DC005B0042F17D024FF4000C8B4224BF5B1A8F
:1004EC0040EA0C00B3EB510F24BFA3EB510340EADD
:1004FC005C00B3EB910F24BFA3EB910340EA9C008B
:10050C00B3EBD10F24BFA3EBD10340EADC001B01FA
:10051C0018BF5FEA1C1CE0D1FD2A3FF650AF8B429E
:10052C0040EBC25008BF20F0010070470CF0004CAB
:10053C004CEA50207F32C2BFD2F1FF0340EAC250D6
:10054C00704740F400004FF00003013A37E792F097
:10055C00000F00F0004C02BF400010F4000F013AF5
:10056C00F9D040EA0C0093F0000F01F0004C02BFF0
:10057C00490011F4000F013BF9D041EA0C0195E759
:10058C000CEAD15392EA0C0F08D142027FF47DAFF2
:10059C0093EA0C0F7FF470AF084676E793EA0C0FE2
:1005AC0004D14B023FF44CAF08466EE730F0004CE0
:1005BC0018BF31F0004CCAD130F000427FF45CAF70
:1005CC0031F000437FF43CAF5FE700BF0348044BBE
:1005DC00834202D0034B03B11847704758010020E7
:1005EC00580100200000000005480649091A89102E
:1005FC0001EBD171491002D0034B03B1184770477E
:10060C0058010020580100200000000010B5064CD5
:10061C00237843B9FFF7DAFF044B13B10448AFF367
:10062C0000800123237010BD580100200000000041
:10063C00E474000808B5054B1BB105490548AFF338
:10064C000080BDE80840FFF7CFBF00BF00000000EE
:10065C005C010020E474000808B50848084B0360EE
:10066C00102343600023836002F05CFC00B908BDDA
:10067C001621044805F0D7FAF9E700BF74080020EA
:10068C0000640040107500080268144B9A4200D0B8
:10069C00704710B586B003F5D633DA6942F00072B4
:1006AC00DA61DB6903F000730193019B4FF4006383
:1006BC000293002303930493094C02A9204602F0F1
:1006CC00C3FD4FF48053029302230393032305933A
:1006DC0002A9204602F0B8FD06B010BD006400402F
:1006EC000008014010B50B4C06224FF4E1312046B6
:1006FC0002F0ACF90849204602F0B7FA04F0A4F86D
:10070C000A220146204602F0FEFA204602F0C2FA06
:10071C0010BD00BFD0050020B875000870B586B0BC
:10072C0006460A2201A9B0F9000002F093FB114C15
:10073C001149204602F099FA01A9204602F095FAD7
:10074C000124032C10DC0A2201A936F9140002F052
:10075C0081FB084D0949284602F087FA01A9284671
:10076C0002F083FA0134ECE7024802F093FA06B087
:10077C0070BD00BFD0050020A8750008B475000836
:10078C0010B5044C0146204602F06FFA204602F0E8
:10079C0081FA10BDD005002000B591B0012206925F
:1007AC004FF480330793002108910A9202220D9294
:1007BC000E934FF4E0130F9306A803F04FFD08BB04
:1007CC000F23019302210291002303934FF48062C3
:1007DC000492059301A803F069FFC0B904F034F842
:1007EC000D4BA3FB0030800902F0A8FC042002F0A2
:1007FC00C9FC002211464FF0FF3002F04BFC11B047
:10080C005DF804FB1121054805F00DFAD8E71F210E
:10081C00024805F008FAE1E7D34D6210387500087C
:10082C0008B5FFF75FFFFFF7ABFF0121112005F0C3
:10083C00DDFD0121142005F0D9FD01211A2005F060
:10084C00D5FD00F021F8FFF707FF01F0CBFB08BD49
:10085C0010B505F027FE044601F068FC01F07EFCA3
:10086C0001F0C0FC01F0EEFE01F0D4FF054B1B685B
:10087C00E31AB3F57A7F00D210BD024B1C6001F075
:10088C0061FDF9E7740100200E4BDA6822F08072EA
:10089C00DA60DA6842F08072DA600B4B1A6822F088
:1008AC0001021A601A6842F001021A6000225A60B2
:1008BC0000BF00BF00BF5B680BB110467047012042
:1008CC00704700BFF0ED00E0001000E0091A89B29B
:1008DC0008B2002800DB7047203108B2FBE710B4E7
:1008EC0021F0604420F06042C30FB3EBD17F10D0F5
:1008FC0000290ADB00280ADB944203D094422CBF67
:10090C0000230123184610BC7047A40CF2E7920C8C
:10091C00F2E7C1F38071C0F38073944204D0944227
:10092C002CBF00230123EDE79942EBD1F7E710F040
:10093C00800F04D010F4004F03D001207047022028
:10094C0070470020704710B50446FFF7F0FF0228EF
:10095C0002D0C4F3074010BDC4F30F2014F07F0F76
:10096C00F9D100F00300F6E720B103698B4201D006
:10097C000068F9E770470020704780EA01200023E7
:10098C0007E0400080B280F4815080F00100013318
:10099C00DBB2072B05D810F4004FF2D1400080B227
:1009AC00F5E7704770B516461D46002410E0C4F1FB
:1009BC002002A4F1200326FA04F105FA02F21143F5
:1009CC0025FA03F31943C9B2FFF7D7FF0834A4B2D1
:1009DC003F2CECD970BD38B50C46551E2AB114F815
:1009EC00011BFFF7CAFF2A46F7E738BD30B40546AE
:1009FC0000239A4205D901EB43142C6025460133A0
:100A0C00F7E700232B608280C380038130BC7047E2
:100A1C000246006850B103681360D38801339BB25F
:100A2C00D38011898B4202D9138170470020704703
:100A3C0008B5FFF7EDFF034608B100220260184627
:100A4C0008BD00002DE9F047CC8AC4F30904062C3C
:100A5C003BD026462546002409E012F804E001EBC1
:100A6C00050C8CF81AE00135ADB20134A4B2052D99
:100A7C0003D81FFA83FCA445EFD89DB2A5421DD91B
:100A8C001F46164689468246C98AC1F309018A1F48
:100A9C0093083748A0FB0303C3EBC3034FEA830857
:100AAC00A2EB08021FFA82F8D9F804507DB1012399
:100ABC002A68BAB101339BB21546F9E73544CB8AA3
:100ACC0065F30903CB82012046E00024D8E75046A9
:100ADC00FFF7AEFF0546C9F8040000283ED04FF0E2
:100AEC00000821E07A18063A92082149A1FB02126B
:100AFC0092B2013292B2934216D2B8F1000F13D1D6
:100B0C005046FFF795FF286058B305460CE0315D61
:100B1C00EA18117101339BB20134A4B21B2B01D81A
:100B2C00A042F4D8A04204D8B8B2A0420AD9434695
:100B3C00F4E75046FFF77CFF2860A8B105464FF05C
:100B4C000008F1E7B9F81630C3F30902104460F35A
:100B5C000903A9F816300120BDE8F0876FF00200F8
:100B6C00FAE76FF00200F7E76FF00200F4E700BF5E
:100B7C00254992242DE9F04190B10D4680460B7C1D
:100B8C00ABB1C769D7B13E463C4624B369686068CF
:100B9C00FFF7A5FEA8B923682646DBB11C46F4E78F
:100BAC000E4B0F4A4FF46F710E4805F085FC0E4B3F
:100BBC000B4A40F2BD310B4805F07EFCC8F81C1006
:100BCC0009E0A74202D035602C6004E02C60C8F824
:100BDC001C5000E02560BDE8F08100BFD87700080C
:100BEC004C760008A0790008D879000808B540B107
:100BFC0003780133DBB203701F2B01D90023037080
:100C0C0008BD034B034A40F25531034805F054FC30
:100C1C006079000828760008A079000808B50368F8
:100C2C000B600160C38813B1013BC38008BD034B4B
:100C3C00034A40F22F61034805F03EFC307900086E
:100C4C00AC760008A079000870B506460C466168C1
:100C5C0031B10D6806F10C00FFF7E0FF6560F6E7B7
:100C6C00E38A6FF30903E3820020002170BD0000CA
:100C7C0008B5436883B9C37DC3F38402013262F3C0
:100C8C008603C375C38A6FF30903C382C3F30723B7
:100C9C006FF3C713C37508BD034B044A40F22641DA
:100CAC00034805F009FC00BF7C7900085876000861
:100CBC00A07900082DE9F843089FB2B34FEAD10C94
:100CCC0003EBD70301F0070107F007070A44914231
:100CDC0032D001F0070807F0070E4646F04538BF42
:100CEC007646C6F10806541AA64228BF26464FF48B
:100CFC007F45F540EDB245FA0EF5CC0800EB0C093A
:100D0C0019F8044004FA08F424FA0EF4E4B24FEA99
:100D1C00D70813F808E08EEA04042C408EEA040E7F
:100D2C0003F808E031443744D1E7044B044A4FF44C
:100D3C00A661044805F0C0FBBDE8F883EC77000819
:100D4C0070760008A07900082DE9F04F87B0059265
:100D5C0003930490002840D08846049B9B8ADA00B9
:100D6C008A4240F2ED80059941448A4205D2D0B2C4
:100D7C005FFA88F3C01AC3B20593059B002B33D0DE
:100D8C00049BDB68002B36D0B8F12F0F44D8C8F188
:100D9C003003059A9A423CD35FFA88F3C3F13003CF
:100DAC00DBB2029300230093039B029C2246414634
:100DBC0004988068FFF77EFFA044059A141BE4B2E8
:100DCC00049B9F8A07F10057063FFF00D3F80CA045
:100DDC004FF03009A346544644E05A4B5A4A40F26D
:100DEC0052515A4805F068FB594B574A40F25E5134
:100DFC00564805F061FB049B1B69002BC4D10023F2
:100E0C000093039B059A414604988068FFF752FFB4
:100E1C006EE0059B0293C5E7059C00230293CFE788
:100E2C004C4B494A40F27F51484805F045FB5D4622
:100E3C00C84530D3029B0093039B2A46A8EB0901BB
:100E4C00201DFFF737FFA844029B2B44DBB2029313
:100E5C00ABEB050B5FFA8BFBB14523D2A7EB0A0773
:100E6C002468B1462CB3BBF1000F22D0002FD7D091
:100E7C00BA46E02F28BF4FF0E00A0AEB0906B0454E
:100E8C00EAD2A6EB08039B45D1D3F5B25FFA88F3FF
:100E9C00ED1AEDB2CCE7304B2B4A4FF4B1612B4835
:100EAC0005F00AFB2D4B284A40F29251274805F0D9
:100EBC0003FB5C46BB4520D8049B186978B174B120
:100ECC00C84521D3029E0096039B2246A8EB09013C
:100EDC00FFF7F0FED8443444E3B202930024049BA1
:100EEC009B8AB8EBC30F16D8029B402B1AD804BBB5
:100EFC00BDF9140007B0BDE8F08F194B124A4FF43E
:100F0C00B361124805F0D8FA134B0F4A40F29D51C9
:100F1C000E4805F0D1FA134B0B4A4FF4B5610B4850
:100F2C0005F0CAFA104B084A40F2A951074805F0DF
:100F3C00C3FA0E4B044A40F2AA51044805F0BCFA1D
:100F4C000020D7E7FC77000880760008A07900081D
:100F5C000C7800081C7800083078000858780008D5
:100F6C0080780008A8780008D8780008F078000885
:100F7C0010B558B10246013900238B420DD2D05C1A
:100F8C00545CD454505401330139F6E7034B044AF2
:100F9C0040F2C551034805F08FFA10BDF4790008F2
:100FAC009C760008A079000808B5FFF731FD0346D0
:100FBC0028B10022026042608260C2600261184661
:100FCC0008BD00002DE9F04F83B0009201930C9EF8
:100FDC00BDF8345098B18B46824611F0604F15D154
:100FEC00009B002B79D00DB1002E79D0072D14D990
:100FFC004FF080094FF00008444647464FE03D4B08
:10100C003D4A40F265313D4805F056FA3C4B3A4AB0
:10101C0040F26631394805F04FFA0AF10C00FFF73F
:10102C00C3FF044600285ED02A463146083005F03E
:10103C00A5FA6B1C2374009B1B7803F01F0343F071
:10104C00C00325442B724BF000436360214650468D
:10105C00FFF790FD0127384603B0BDE8F08F002361
:10106C002CE0AC4236D04FEA4812D2B242EA09091F
:10107C00009A127802F01F0249EA0209CA1882F893
:10108C0008904BF000424A6001330B745046FFF756
:10109C0071FD01373FB288F001084FF00009AC42F6
:1010AC00D9D00AF10C00FFF77FFF0146F0B1002CFC
:1010BC00D5D1019B03721B0A43720223062BD0D895
:1010CC00AC42CED2305DCA1810720133DBB201349F
:1010DC00A4B2F3E74FF04009C5E76FF00107BAE798
:1010EC006FF00107B7E76FF00207B4E76FF0020784
:1010FC00B1E700BFD87700083C760008A07900085B
:10110C000C79000830B589B004460D462022002128
:10111C00684605F041FA04952046FFF779FC054630
:10112C0050B16C460FCC28606960AA60EB600FCCA4
:10113C0028616961AA61EB61284609B030BD10B520
:10114C0004460C30FFF7DEFF034610B1A2690260C3
:10115C00A061184610BD38B504460D46806928B10B
:10116C00FFF702FC034650B1184638BD04F10C00E1
:10117C00FFF7C8FF03460028F6D0A061F4E7294624
:10118C002046FFF7DCFF0346EEE7000010B5C8B1C0
:10119C00044600202060E060206160612070A36044
:1011AC00029B6360A061E061039B23625309B2F56B
:1011BC00001F01D34FF6FF739AB204F10C00FFF736
:1011CC0015FC10BD024B034A4F21034805F074F97E
:1011DC00D4770008C8750008A079000808B538B1A4
:1011EC0002785AB951B111F0800F07D1017008BDC6
:1011FC00054B064A7321064805F05EF9054B034A78
:10120C007D21034805F058F9D8770008D4750008FB
:10121C00A079000808780008007870472DE9F04A9A
:10122C0085B0BDF830409DF838B00F9EBDF84070C9
:10123C009EB3BBF11F0F4BD8CDE902230546FFF738
:10124C00EBFF814670BB072F45D834F0030345D123
:10125C003A4631464FF6FF70FFF7BDFB20F0010018
:10126C004004400C400240EA0B6B240204F440742E
:10127C004BEA040444EA09094FF6FF730197009600
:10128C000D9A49462846FFF79DFE04460D98FFF738
:10129C00ADFC204605B0BDE8F08A002FC9D06FF038
:1012AC000104F6E7240244EA0B6444EA0009072F20
:1012BC000BD9DDE902234FF6FF70FFF773FB3A46BB
:1012CC003146FFF788FB0346D8E74FF6FF73D5E7A7
:1012DC006FF00104DDE76FF00304DAE76FF001044F
:1012EC00D7E72DE9F04F83B09DF838409DF83CA02E
:1012FC00109EBDF8447016B31F2C3AD890469946F0
:10130C008B460546FFF788FFB0B39DF830301B04C1
:10131C0043EA046444EACA3444EA0B24044344F028
:10132C008004072F10D942464B464FF6FF70FFF74B
:10133C0039FB3A463146FFF74EFB034606E0002FD9
:10134C00DAD06FF001040CE04FF6FF7301970096B2
:10135C000D9A21462846FFF735FE0446BAF1010FD7
:10136C0003D0204603B0BDE8F08F0D98FFF73EFC8C
:10137C00F7E76FF00104F4E76FF00304F1E7C069DD
:10138C0008B1043070470020704708B5C1690B687C
:10139C00C3610C30FFF742FC08BD00002DE9F041A1
:1013AC0082B0089E002800F01B810446002E00F03D
:1013BC001A81551EEDB23F2D00F21881012A02D17F
:1013CC00002B40F0168120461D4614460023009346
:1013DC0001936B46FFF7B8FC071E54DD7B1E9BB2D6
:1013EC003F2B1CD8A7421ADC14F0070F0AD002AB13
:1013FC0003EBD40111F8083C624202F007021341DE
:10140C0001F8083C012C18D0082C40D9102C41D9DB
:10141C00202C42D9402C09D84FF008080EE0764B0E
:10142C00764A4FF40B71764805F046F8754B734AC3
:10143C0040F24521724805F03FF8A04608F1FF3311
:10144C00DBB2072B2CD8FFF796FA80BB9DB1B4EB1F
:10145C00C80F10D0082C2FD89DF80010621E21FA4E
:10146C0002F212F0010F06D00123A3405B42DBB263
:10147C000B438DF80030002D00F08D80082C71D8B6
:10148C009DF900303370384602B0BDE8F0814FF062
:10149C000108D3E74FF00208D0E74FF00408CDE77E
:1014AC00594B564A40F24921554805F005F841463A
:1014BC006846FFF75DFDC9E7102C0FD8BDF800207A
:1014CC00631E22FA03F313F0010FD4D00123A340BF
:1014DC005B429BB21343ADF80030CCE7202C0CD808
:1014EC00009A631E22FA03F313F0010FC3D00123F9
:1014FC00A3405B421A430092BDE73F2C2BD8DDF88A
:10150C0000C0019A631EC3F12000A4F121012CFA42
:10151C0003F302FA00F0034322FA01F10B4303F048
:10152C000100002150EA0103A5D00123A4F12008F9
:10153C00C4F1200E03FA08F123FA0EFE41EA0E0163
:10154C0003FA04F0404261EB41014CEA00030A4308
:10155C00009301928FE72B4B284A40F277212848C1
:10156C0004F0AAFF102C03D8BDF9003033808AE7B1
:10157C00202C02D8009B336085E7402C04D8DDE991
:10158C000023C6E900237EE71E4B1C4A40F287214C
:10159C001B4804F091FF012C05D0082C07D89DF8AE
:1015AC00003033706FE79DF8003033706BE7102C10
:1015BC0003D8BDF80030338065E7202C02D8009B9F
:1015CC00336060E7402C04D8DDE90023C6E9002332
:1015DC0059E70C4B094A4FF42571094804F06CFF8C
:1015EC006FF001074FE76FF001074CE76FF0010751
:1015FC0049E76FF0010746E7B87600080076000867
:10160C00A079000808780008F4760008F0B585B0D9
:10161C0090B10E4614460546ABB1402A1AD802B317
:10162C00002202920392012C22D0082C3ED81B7867
:10163C008DF8083001271FE0284B294A4FF42A71F6
:10164C00284804F039FF284B254A40F2A9212548A7
:10165C0004F032FF254B224A40F2AD21214804F020
:10166C002BFF224B1E4A40F2B3211E4804F024FFEC
:10167C001B788DF808302746FFF77DF948BB14F02E
:10168C00070F0AD004AB03EBD40111F8083C6242FB
:10169C0002F00702934001F8083C00962B462246C4
:1016AC00002102A8FFF706FB05B0F0BD102C04D8F2
:1016BC001B88ADF808300227DEE7202C03D81B6806
:1016CC0002930427D8E7D3E90023CDE902230827A6
:1016DC00D2E7394602A8FFF74BFCD0E72477000885
:1016EC0014760008A07900084077000808780008F4
:1016FC0070B506460C46E16831B10D6806F10C0078
:10170C00FFF78CFAE560F6E70023E360A360236142
:10171C00A38270BD2DE9F04F93B080460D46029226
:10172C0003930C682046FFF702F90646022835D0D1
:10173C00C4F3062B002C2EDA14F0C04F2BD12F7BC8
:10174C004FB3022E04D04046FFF766FD584522D118
:10175C00C4F30463069304F07F092046FFF7F3F803
:10176C00079040EA064343EA894343EA4B6B013F47
:10177C002F443F795FEAD71A22D000220023CDE90B
:10178C000A23D8F80440CDF80090334602460AA943
:10179C004046A04728B913B0BDE8F08F4FF0000BBE
:1017AC00C8E759464046FFF7D6FC04460028F2D05D
:1017BC00DDE90A234FF6FF70FFF7F4F8A08207E08B
:1017CC005946D8F81800FFF7CFF804460028E2D0A5
:1017DC003CB3D4E90201029B1B1A0493039BCDE991
:1017EC00080163EB01030593E07D07F01F0B5946DD
:1017FC00C0F38400FFF76AF88446DDE9082313433D
:10180C0018D0A14A0023DDE904018B4208BF8242B3
:10181C004AD3BAF1000F49D0BCF1010F08DD012306
:10182C0009E09A4B9A4A4FF49D719A4804F044FE91
:10183C00002300E00123002B3AD1BAF1000F02D0B3
:10184C0017F0400F49D1C7F34013E27DB3EBD21F21
:10185C00A1D1C2F384039B459DD1BAF1000F6AD08C
:10186C0017F0400F67D12B7B032B94D9029BA360FD
:10187C00039BE360AE1D2B7B033BDBB23246214660
:10188C0008F10C00FFF7DEF800284CDB2B796A79A5
:10189C0043EA022323832A7B033AD2B23146A08A3D
:1018AC00FFF799F8A0826CE00123C4E70023C2E79C
:1018BC00E37D67F386036FF3C713E3752146404658
:1018CC00FFF7C2F9BAF1000FB7D1E37DC3F384027D
:1018DC00013262F38603E3755DE7029AA260039915
:1018EC00E16000230D930E9311930A920B912B1D23
:1018FC000C932B7B013BDBB2ADF83C30079BADF876
:10190C003E308DF840608DF841B0069B8DF842302A
:10191C008DF84390D8F808300AA9404698472046DD
:10192C00FFF7A6F937E721464046FFF78DF9204629
:10193C00FFF79EF92FE7BAF1000F02D117F0400F15
:10194C000BD0297B0139C9B2E28AC2F30902052AFC
:10195C0027D9606898B3062735E02E1D2B7B013BF9
:10196C00DBB23246214608F10C00FFF76BF8002879
:10197C000FDB2A7B013AD2B23146A08AFFF72BF853
:10198C00A082E37DDA43C2F3C01262F3C713E3759E
:10199C0001E721464046FFF757F92046FFF768F963
:1019AC00F9E6002306E0E8180779A01887760132DB
:1019BC000133DBB2052A2AD88B42F4D327E000236B
:1019CC0025E01C3718460368002BFAD120B1D21B36
:1019DC001B2A08D8002316E02F4B2D4A4FF4D87140
:1019EC002C4804F069FD2D4B294A40F2B3112948CB
:1019FC0004F062FDEF1897F804C0871887F804C04C
:101A0C0001320133DBB21B2A01D88B42F2D3029A8A
:101A1C000A92039A0B9204F11A020C9262680D92CC
:101A2C008B4228D22B4404330E93E38AC3F309036D
:101A3C001944ADF83C10079BADF83E308DF8406072
:101A4C008DF841B0069B8DF842308DF84390002301
:101A5C0063602A7B013A291DA08AFEF7BCFFA08295
:101A6C00238B984209D00AA94046FFF741FE204635
:101A7C00FFF7FEF88FE60023D6E7D8F808300AA95E
:101A8C0040469847EFE700BF80841E005877000857
:101A9C00EC750008A07900087077000888770008BA
:101AAC0010B500F000446040B0F1FF4F03D316D9DD
:101ABC0047F6FF7010E04FF0F06120F47F6020F0EB
:101ACC000F00FEF733FC00F58050B0F1786F01D9B0
:101ADC004FF07860C0F34F3040EA144010BD4FF423
:101AEC00F840F9E710B4034620F0604421F060425E
:101AFC00C80FB0EBD37F0FD0002B09DB002909DB1B
:101B0C00944203D094422CBF0020012010BC70479B
:101B1C00A40CF3E7920CF3E7C3F38073C1F380706A
:101B2C00944204D094422CBF00200120EEE7834263
:101B3C00ECD1F7E7021E06DB500512F0804F01D006
:101B4C0040F002007047D30043F00400F5E710F0BA
:101B5C00040F07D1430D10F0020F01D043F0804366
:101B6C0018467047C30843F00043F4E70D4B9B69DC
:101B7C0013F0700F15D00B4B00229A610A4A936830
:101B8C00D168013341F100019360D160074B1B78A0
:101B9C0023B9044B9B6913F0040F02D0014B044A88
:101BAC009A6070470064004080010020780100209A
:101BBC00808080002DE9F04106460D46002401E0AE
:101BCC000134A4B2B4F57A7F19D2736803F001031F
:101BDC00DBB2AB4215D04FF47A770B4BD3F80480C1
:101BEC0002F032FE094BA3FB0030800C07FB00F720
:101BFC00054B5B68A3EB0803BB42F9D3E0E700207D
:101C0C0000E00120BDE8F081001000E083DE1B4302
:101C1C00022900F2B380002800F0B38038B50388A5
:101C2C00002B00F0B180B3F5806F00F2B080037927
:101C3C00002B00F0AF80042B00F2AF808378002BD8
:101C4C0000F0AE80102B00F2AE80C378002B00F0B9
:101C5C00AD80082B00F2AD800C460546564A002399
:101C6C00136053609360D360022914BF00210121DB
:101C7C00524A117052484361036823F00203036017
:101C8C00036843F0010303600121FFF793FF002871
:101C9C0057D04B4B61221A602B79013B1B0603F08A
:101CAC004073AA78013A120402F470221343EA78C2
:101CBC00013A120502F4E00213432A88013AC2F3F6
:101CCC0009021343012C43D0002213433C4AD36135
:101CDC005369002B3FD13A48036823F0010303609A
:101CEC000021FFF767FF00283BD0354AD2F80032BD
:101CFC0023F47C5323F00E0343F4606343F001039D
:101D0C00C2F80032D2F80032C3F305230E2B2FD1C8
:101D1C002B4B0020C3F804026FF07042C3F80C2266
:101D2C00284AC3F81422C3F84002C3F84402012223
:101D3C00C3F81C22D3F8002222F00102C3F80022BF
:101D4C0038BD1F4B4FF400421A606FF47A70F7E7FE
:101D5C004FF00042B9E71C4B1C4AE8211C4804F028
:101D6C00ABFB174B4FF400421A60A0F2EA30E7E7E6
:101D7C00184B164AFE21164804F09EFB6FF001002A
:101D8C0070476FF0010070476FF00100D8E76FF0FB
:101D9C000100D5E76FF00100D2E76FF00100CFE74B
:101DAC006FF00100CCE76FF00100C9E76FF00100A4
:101DBC00C6E76FF00100C3E7800100207801002026
:101DCC0000640040AAAAAA0A347A0008107A000813
:101DDC006C7A0008B87A0008002875D070B582B00B
:101DEC000446036813F0005F71D1FFF7BFFE394B57
:101DFC009B6803F0E053B3F1E05F63D0354B9A6816
:101E0C00C2F380628DF804209A68C2F3C0628DF828
:101E1C0005209B68C3F300738DF806300025FF2660
:101E2C0002E02E460135EDB2022D13D802AB2B4445
:101E3C0013F8043C002BF4D105F118031B01254ABF
:101E4C00D058FFF784FE01462068FFF74BFE0028B0
:101E5C00E8D127E0FF2E27D0022E2CD8350105F132
:101E6C00804505F5CB45237B6B60E27AA37A1B0496
:101E7C0043EA0263627A43EA0223227A1343EB6059
:101E8C00E279A3791B0443EA0263627943EA0223F1
:101E9C0022791343AB602068FFF74CFE40F0010041
:101EAC002860012002B070BD0B4B0C4A40F25D1152
:101EBC000B4804F001FB0B4B084A40F26711084831
:101ECC0004F0FAFA0026C9E76FF0010070470648E3
:101EDC00E8E700BF00640040047B0008207A00089B
:101EEC006C7A0008147B000815FCFFFF002840D01A
:101EFC0070B50646FFF73AFE0023012B37D81E4C6F
:101F0C0004EB03141D4A52F823502A6812F0030FF5
:101F1C0001D10133F1E72B6813F0100F07D0184AE9
:101F2C0013685168013341F100011360516020685E
:101F3C00FFF70DFE3060636803F00F033373A26884
:101F4C00E3683271C2F307217171C2F30741B171B9
:101F5C00120EF2713372C3F307227272C3F307428B
:101F6C00B2721B0EF37238232B60012000E00020AC
:101F7C0070BD6FF001007047B0650040087A000832
:101F8C0080010020012B07D040F206439A420CD06E
:101F9C000B2A11D000207047012AF5D10BA3D3E9ED
:101FAC000023C1E90023012070470AA3D3E90023D1
:101FBC00C1E900230120704708A3D3E90023C1E93C
:101FCC0000230120704700BFAFF300809E6AC4213C
:101FDC00818A46EE1D95ECD7875C7F21D5A4D1393B
:101FEC00F922B6A7F0B585B002F034FC00230293B9
:101FFC00ADF80C30424AA2FB0032920C09235C1C57
:10200C00B2FBF4F104FB112121B1022B73D9013B7A
:10201C00DBB2F4E7B2FBF4F2511EB1F5806F6CD277
:10202C00C3EBC306F11C22D4C910CDB25F1BFFB2A7
:10203C00AB421ED9C9B24FF47A7401FB0444394443
:10204C000131B4FBF1F189B2B1F5617F05D9751E8F
:10205C0016D4C5F3C7055B1BDFB26B1EDBB20F2BAF
:10206C0010D8002F3CD0082F3CD900210BE00731B1
:10207C00DAE7244B244A40F21511244804F01CFAE8
:10208C000735E6E70021EB1903FB0223B0FBF3F065
:10209C001F4B984228D139B3ADF8082001238DF895
:1020AC000C308DF80A508DF80B70002303B101BE73
:1020BC00002102A8FFF7ACFD00B101BE154C0023B6
:1020CC000193154B0093154B4FF480621449204635
:1020DC00FFF75CF82C212046FFF780F805B0F0BD27
:1020EC000021D0E70121CEE70E4B074A40F22F1119
:1020FC00064804F0E1F90C4BD8E70B4BD6E700BFD0
:10210C0083DE1B43687B0008247B00087C7B000873
:10211C0040420F0090010020911F00081526000876
:10212C00B40100200878000818FCFFFF08B50A4825
:10213C00FFF725F904E001BE07E00748FFF71FF998
:10214C0048B1FFF749FE0028F5DB0028F5DD024811
:10215C00FFF71BF9F1E708BD9001002000B585B031
:10216C006846FFF7C3FE10B905B05DF804FB00F03C
:10217C00D3FE4FF47A7202FB00F200236946024848
:10218C00FFF7C8FAF0E700BF9001002030B583B02C
:10219C00044600258DF807508DF806500560C0F8F0
:1021AC00035000F0B9FE0D4BA3FB003080090090EA
:1021BC006B46202229462046FFF728FA0DF107032B
:1021CC00022220212046FFF721FA0DF106030322FB
:1021DC0022212046FFF71AFA03B030BDD34D62100E
:1021EC000000000010B588B000F096FE154B1B687F
:1021FC0003F5FA73984201D208B010BD00F08CFEC2
:10220C00104B18604FF400510F4801F007F906AC61
:10221C002046FFF7BBFF0723049303941823029374
:10222C000A4B019340F25513009304A3D3E9002306
:10223C000748FEF7F3FFDFE7AFF30080F1C6A7C155
:10224C00D068080FC805002000100140CD05002003
:10225C009001002000230F2B03D8C3540133DBB2B1
:10226C00F9E7704710B582B0044640F279120021AC
:10227C0004F092F92046FFF789FF6323E371237280
:10228C00012363720B4B019301AB2022502120469A
:10229C00FFF7BCF904F11800FFF7DCFF064B03CB8A
:1022AC00C4F82900C4F82D101B7884F83130322082
:1022BC0002B010BDFE0FDCBA447B000830B5E7B0AD
:1022CC00044607AD40F279120021284604F064F967
:1022DC002846FFF7C7FF0590049500230393A37EC0
:1022EC00029304F1190301930123009306A3D3E98C
:1022FC000023E17E0348FEF7F4FF67B030BD00BF5A
:10230C00AFF30080900100209E6AC421818A46EEC2
:10231C0070B582B0064600242546052C0EDC084B11
:10232C0003EB4403009301230E2229463046FFF7AA
:10233C0035F80D2802DD0E350134EEE702B070BD24
:10234C00BC05002008B50248FEF7E8F908BD00BF3F
:10235C00BC050020022805D800EB8000C300024811
:10236C00184470470020704708000020F8B5064656
:10237C000024022C16D804EB8402D3000A4AD55848
:10238C002846FDF7BDFE02462946304604F09EFC69
:10239C0010B10134A4B2ECE704EB8407FB00024853
:1023AC00184400E00020F8BD0800002070B582B091
:1023BC000C4600238DF8073001238DF806300028D9
:1023CC0065D005460DF10703052200212046FFF7D5
:1023DC001DF90DF10603032205212046FFF716F91E
:1023EC0005F10803402208212046FFF70FF90DF1F3
:1023FC000703052248212046FFF708F90DF10603D3
:10240C0003224D212046FFF701F905F1200340225C
:10241C0050212046FFF7FAF80DF107030622902110
:10242C002046FFF7F3F80DF1060302229621204611
:10243C00FFF7ECF805F11803402298212046FFF72E
:10244C00E5F80DF107030622D8212046FFF7DEF848
:10245C000DF106030222DE212046FFF7D7F805F125
:10246C0010034022E0212046FFF7D0F824342E68D8
:10247C003046FDF745FE02463146204604F07EF814
:10248C002868FDF73DFE243080B202B070BD0025F7
:10249C008DF806500DF10703052229462046FFF75B
:1024AC00B5F80DF10603032205212046FFF7AEF81F
:1024BC000DF10703062208212046FFF7A7F80DF1BE
:1024CC00060302220E212046FFF7A0F80DF10703A8
:1024DC00062210212046FFF799F80DF1060302227F
:1024EC0016212046FFF792F8E5700420CDE7000096
:1024FC0000000000F0B59FB006464FF6FF73ADF834
:10250C00763000248DF8754000220023CDE91A2383
:10251C000DF17603009323460D222146FEF73EFF74
:10252C000DF175030093234603220D213046FEF76F
:10253C0035FF9DF87530012B1CD01025B78A2B4622
:10254C00002D21DBDB105B429BB21F44BFB2002489
:10255C001694179418941994A74217DD16AB2344BC
:10256C0000930023082229463046FEF717FF083552
:10257C000134F1E71AAB0093234640221021304678
:10258C00FEF70CFF5025D9E7EB1DDBE79DF8583023
:10259C003BB316A8FFF7EAFE05461DB19DF8753052
:1025AC00012B24D0002406943C22214607A803F0DA
:1025BC00F3FF06AF39462846FFF7F8FE059004975F
:1025CC000394B37E029306F1190301930B2300933A
:1025DC000BA3D3E90023F17E0848FEF782FE1FB05F
:1025EC00F0BDBDF87600FFF7B5FE0546D5E7DDE991
:1025FC001A23C5E90223D5E7AFF300809001002030
:10260C00D5A4D139F922B6A710B50C460B7E012BF7
:10261C0008D0E28A40F206439A420AD0E38A0B2B96
:10262C000BD010BDCB8A012BF3D10846FFF746FE29
:10263C00EFE72046FFF76CFEF0E72046FFF75AFF66
:10264C00EFE7000030B59FB000F066FC6B4B1B68E9
:10265C00C833984201D21FB030BD00F05DFC674B0F
:10266C0018604E2200210AA803F096FF5BA5D5E95D
:10267C000045CDE9084508AB382200210AA8FEF731
:10268C00C5FFCDE9084508AB382211460AA8FEF76C
:10269C00BDFF02220023CDE9082308AB03227021E1
:1026AC000AA8FEF7B3FF00220023CDE9082308ABEC
:1026BC00082278210AA8FEF7A9FF4AA3D3E9002330
:1026CC00CDE9082308AB252280210AA8FEF79EFF3E
:1026DC0046A3D3E90023CDE9082308AB2522A52185
:1026EC000AA8FEF793FF464C0025CDE9084508AB38
:1026FC001B22CA210AA8FEF789FFCDE9084508ABC1
:10270C001B22E5210AA8FEF781FF00254FF48074F7
:10271C000AE00023079307AB102221460AA8FEF714
:10272C0075FF1034A4B20135022DF2DD0A2200230C
:10273C00CDE9082308AB062221460AA8FEF766FF5E
:10274C00A11D02220023CDE9082308AB89B20AA8F7
:10275C00FEF75CFF04F10805ADB22A48FFF7A0F9BB
:10276C00FDF78CFD079007AB102229460AA8FEF74F
:10277C004DFF1834A4B200250AE00023079307ABE1
:10278C00102221460AA8FEF741FF1034A4B20135ED
:10279C00082DF2DD00250AE00023079307AB102279
:1027AC0021460AA8FEF732FF1034A4B20135082DD9
:1027BC00F2DD4E2304930AAB039318230293124BBE
:1027CC00019340F2244300930AA3D3E900230F485A
:1027DC00FEF724FD3FE700BFAFF3008015CD5B078C
:1027EC00000000004EBF8CB3000000004E91D61EBE
:1027FC000100000097F2079E2B57C154B40500202E
:10280C0040420F000000A040CC05002090010020A9
:10281C000000000030B58DB000F07EFB354B1B681E
:10282C00C833984201D20DB030BD00F075FB314B6E
:10283C00186008AC0021089109910A910B914FF096
:10284C007E55069506AB10222046FEF7DFFE069558
:10285C0006AB102211462046FEF7D8FE069506ABB5
:10286C00102220212046FEF7D1FE069506AB102241
:10287C0030212046FEF7CAFE069506AB10224021F9
:10288C002046FEF7C3FE069506AB102250212046CB
:10289C00FEF7BCFE069506AB102260212046FEF723
:1028AC00B5FE0A258DF81F500DF11F03072270216C
:1028BC002046FEF7ABFE8DF81F500DF11F030622CC
:1028CC0077212046FEF7A2FE1023049303941823CD
:1028DC000293094B019340F22543009303A3D3E9E0
:1028EC0000230648FEF79AFC9DE700BFD2BFDBC36E
:1028FC00C4BDE89BB8050020CC0500209001002049
:10290C00B0F8623001335A4203F03F0302F03F0249
:10291C0058BF53429BB2A0F86230B0F85E20B0F8BA
:10292C0062309BB29A4201D0002070474FF0FF30CA
:10293C007047B0F8F4304033B0F8F000181A00F0DB
:10294C003F007047B0F8F4309BB2B0F8F0209342DF
:10295C0003D0D0F8E830985C70474FF0FF307047E8
:10296C00B0F8F42092B2B0F8F0309A4209D0D0F816
:10297C00E820D25C013303F03F03A0F8F03010469E
:10298C0070474FF0FF307047037C33B1B0F8F22042
:10299C00B0F8F6309BB29A42F8D1704710B582B0BD
:1029AC0004460DF1070103F0F3FB90B9B4F8603065
:1029BC00013303F03F03B4F85C20934209D0616DFE
:1029CC00B4F8602092B29DF8070088549BB2A4F82A
:1029DC00603002B010BD000070B501230374B0F874
:1029EC00F250EC18634204F03F0403F03F0358BF6D
:1029FC005C42E6B2B0F8F6309BB2E2B29342F9D048
:102A0C00D0F8EC305955A0F8F26000F1940420464F
:102A1C0003F0ACFB08B1012070BD0249204603F065
:102A2C00FBFBF8E70D29000800F11103C0F8E830B2
:102A3C000023A0F8F430A0F8F03000F15102C0F8F7
:102A4C00EC20A0F8F230A0F8F63070472DE9F041F8
:102A5C0082B005460E46C0F8FC1080F8F82002F053
:102A6C000703042B0FD0062B0FD0022B0FD0002402
:102A7C0002F03003302B0CD012F0200F1BD001349D
:102A8C004FF4806708E00724F2E70824F0E70624F7
:102A9C00EEE701344FF4C06712F0080F0DD04FF47D
:102AAC000058082C0CD0092C0CD040F259110E48AF
:102ABC0003F0B9F808E00027EEE74FF00008F0E764
:102ACC00002401E04FF480549435CDF800803B464F
:102ADC0022463146284603F0EDF90449284603F016
:102AEC0075FB02B0BDE8F081C07D0008A929000883
:102AFC00222903D8044B33F9113001E04FF0FF3396
:102B0C00A0F8E230704700BF787D0008222903D876
:102B1C00044B33F9113001E04FF0FF33A0F8E030F3
:102B2C00704700BF787D000838B504460023436029
:102B3C004FF47A7383600F4B03600F4B984211D0A4
:102B4C000D460E49284603F00DF8A4F8E2000C4996
:102B5C00284603F007F8A4F8E0002046FFF764FFCE
:102B6C00204638BD0A21FFF7C3FF0B212046FFF793
:102B7C00CDFFF2E7247E0008D0050020007D000880
:102B8C003C7D0008012800D0704708B54FF6FF7354
:102B9C00994200D008BD02490248FFF7C5FFF9E78A
:102BAC0000380140D005002008B54FF6FF71012018
:102BBC00FFF7E8FF08BDF8B507460E46002425468A
:102BCC00022C0DDC3B190A221979304600F0A6F8CC
:102BDC0005442E21304600F058F805440134EFE747
:102BEC000A22F979304600F099F82844F8BD000023
:102BFC0030B4054D05600171427183719DF8083048
:102C0C00C37130BC704700BF4C7E0008012800D057
:102C1C0070474FF6FF739942FAD100B583B000218B
:102C2C0000910B460A460348FFF7E2FF03B05DF83C
:102C3C0004FB00BFD006002008B54FF6FF71012041
:102C4C00FFF7E4FF08BDF8B506460C460025571EF5
:102C5C004AB133681B6814F8011B3046984710B111
:102C6C0001353A46F3E72846F8BD61B170B50D461B
:102C7C00044603685E680846FDF742FA0246294698
:102C8C002046B04770BD0020704708B503681B682C
:102C9C00984708BD08B503685B680222014998474C
:102CAC0008BD00BF507E0008F0B58BB00546002370
:102CBC008DF82430012A01D909AC08E00A22FBE77F
:102CCC003733DBB204F8013D8F420ED8314617463C
:102CDC00B1FBF2F6CBB206FB02F0C0B21B1ADBB2B0
:102CEC00092BEDD83033DBB2ECE754B12B685E68BE
:102CFC002046FDF705FA024621462846B0470BB0A0
:102D0C00F0BD0020FBE708B522B903681B68C9B207
:102D1C00984708BDD2B2FFF7C7FFFAE708B5FFF72F
:102D2C00F2FF08BD10B5044603F0BCFBE06023685D
:102D3C00DB6820469847002808DA03F0B3FBE36809
:102D4C00C01AA3689842F2D34FF0FF3010BDF8B50B
:102D5C0007460C4616460025B5420AD23846FFF700
:102D6C00E1FF002805DB214601F8010B01350C467B
:102D7C00F2E72846F8BD2DE9F0411E469BB1074607
:102D8C0088461446002504E0224602F8010B013562
:102D9C001446B54208D23846FFF7C4FF002803DBBF
:102DAC008045F1D100E01D462846BDE8F0810000C9
:102DBC0008B5054B1BB10548FFF7BBFD00B908BDB5
:102DCC00AFF30080FBE700BF00000000D00500203F
:102DDC0008B502F0C5FA08BD70B48BB00D46A9B3A6
:102DEC001446931E222B33D80A2A02D0002601AB9C
:102DFC000EE00028FADA40420126F8E7B0FBF4F1C5
:102E0C0004FB11020846092A0DDC303203F8012BB1
:102E1C000028F3D101AA9342F0D0AEB12A462D215D
:102E2C0002F8011B07E0573203F8012BF0E713F807
:102E3C00011D02F8011B01A98B42F8D80023137065
:102E4C0028460BB070BC70472A46F4E70846F8E7F2
:102E5C000020F6E708B5FFF7BFFF08BD704708B5BF
:102E6C00032000F005F9FFF7B3FF08BD08B5FFF725
:102E7C00F5FFFDF7D5FC01E0FFF79AFFFDF7E8FC45
:102E8C00014B002BF8D1F9E7BD2D0008704700006D
:102E9C0010B504460E4B18784FF47A73B3FBF0F36D
:102EAC000C4A1068B0FBF3F000F048F968B90F2C2D
:102EBC0001D901200AE0002221464FF0FF3000F03A
:102ECC00E9F8054B1C60002000E0012010BD00BF9C
:102EDC0080000020880000208400002008B5074AEC
:102EEC00136843F010031360032000F0C1F80020B6
:102EFC00FFF7CEFFFFF7CAFF002008BD00200240FD
:102F0C00034A1168034B1B780B441360704700BFD6
:102F1C009C08002080000020014B1868704700BFFF
:102F2C009C080020002800F0A18038B5044690F8D9
:102F3C002030D3B12268136823F002031360FFF72B
:102F4C00EBFF054623685A6812F0020F10D0FFF70A
:102F5C00E3FF401B0A28F5D9636A43F4003363622C
:102F6C00052384F82030012038BDFDF78DFBE1E707
:102F7C001A6842F001021A60FFF7CEFF054623687B
:102F8C005A6812F0010F0DD1FFF7C6FF401B0A283B
:102F9C00F5D9636A43F400336362052384F8203067
:102FAC000120E1E7227E012A3DD01A6822F080023E
:102FBC001A60637E012B3BD02268136823F0400318
:102FCC001360A37E012B39D02268136823F02003F1
:102FDC001360E37E012B37D02268136843F0100393
:102FEC001360237F012B35D02268136823F008036C
:102FFC001360637F012B33D02268136823F0040322
:10300C001360A368E2681343226913436269134394
:10301C006268013A21681343CB610020606201238E
:10302C0084F82030A0E71A6842F080021A60C0E7EA
:10303C002268136843F040031360C2E722681368E8
:10304C0043F020031360C4E72268136823F01003D5
:10305C001360C6E72268136843F008031360C8E7DF
:10306C002268136843F004031360CAE70120704719
:10307C00074AD36823F4E0631B041B0C000200F422
:10308C00E060184340F0BF6040F40030D0607047FF
:10309C0000ED00E030B4174BDB68C3F30223C3F13F
:1030AC000704042C28BF04241D1D062D01D9033B45
:1030BC0000E000234FF0FF3505FA04F421EA040187
:1030CC00994005FA03F322EA03031943002809DBAC
:1030DC000901C9B200F1604000F5614080F80013AD
:1030EC0030BC704700F00F000901C9B2024B1954F3
:1030FC00F6E700BF00ED00E014ED00E0002807DB70
:10310C0000F01F02400901239340024A42F820308C
:10311C00704700BF00E100E000280CDB00F01F024C
:10312C004009012393402030034A42F82030BFF37A
:10313C004F8FBFF36F8F704700E100E00138B0F1A3
:10314C00807F0AD2064B5860064AF02182F8231081
:10315C000020986007221A6070470120704700BF5A
:10316C0010E000E000ED00E0002808DB00F01F029A
:10317C004009012393406030014A42F820307047E7
:10318C0000E100E0042805D0054A136823F004038D
:10319C0013607047024A136843F0040313607047CE
:1031AC0010E000E0704708B5FFF7FCFF08BD000019
:1031BC0008B590F82130022B03D00423836301203F
:1031CC0008BD0268136823F00E03136002681368CD
:1031DC0023F0010313600368194A934214D014328C
:1031EC0093421FD0143293421ED0143293421ED0FD
:1031FC00143293421ED01432934202D04FF080729C
:10320C0003E04FF4801200E001220E4B5A600123C0
:10321C0080F82130002380F82030436B6BB1984745
:10322C000020CDE71022F0E74FF48072EDE74FF469
:10323C008052EAE74FF48032E7E70020C0E700BF96
:10324C000800024000000240F0B482B0002635466F
:10325C00A0E0002B58D0012B10D1CE680EE0694FA6
:10326C00BB4251D048D9684FBB424DD007F580378F
:10327C00BB4249D0A7F58017BB4245D0FF2A57D88F
:10328C008446FF2A57D8AC00DCF800300F27A74043
:10329C0023EA070306FA04F42343CCF800304B6806
:1032AC0013F0805F75D0594B9C6944F001049C610C
:1032BC009B6903F001030193019BAC08A71C544BC1
:1032CC0053F8273005F00307BF004FF00F0C0CFA32
:1032DC0007FC23EA0C0C4F4B984232D003F5806369
:1032EC00984270D003F5806398426ED003F58063EA
:1032FC00984224D0042325E0A7F58017BB4203D0C5
:10330C0007F58037BB42B9D18B687BB1012B08D054
:10331C0044610826B2E7CE680836AFE7CE680C36B3
:10332C00ACE704610826A9E70026A7E70426A5E771
:10333C0000F1040CA5E7A5F10804A400A4E70323FD
:10334C0000E00023BB4043EA0C030234304F47F843
:10335C0024304B6813F4803F39D02F4C236813432F
:10336C0023604B6813F4003F37D02B4C6368134336
:10337C0063604B6813F4801F35D0274CA36813434C
:10338C00A3604B6813F4001F33D0234CE3681A433B
:10339C00E26001350F2D32D80124AC400A6822407E
:1033AC009442F6D14B68122BB8D03FF658AF022B93
:1033BC00B1D07FF64EAF032BB6D0112B7FF45EAF9E
:1033CC00CE6804365AE70123BCE70223BAE7124C55
:1033DC00236823EA02032360C3E70F4C636823EAE4
:1033EC0002036360C5E70C4CA36823EA0203A360E5
:1033FC00C7E7094CE36823EA0202E260C9E702B0BE
:10340C00F0BC704700002110000031100010024089
:10341C00000001400008014000040140C36859400D
:10342C00C160704708B5054B5B69034200D108BD0C
:10343C00024B586102F048F8F9E700BF0004014064
:10344C0090F83E30DBB2402B10D00369B3F5804FBF
:10345C001BD0036D5BBB436CC3F3C813026803F052
:10346C00060343F0F003136100207047036D2BB982
:10347C00436C026803F0FE031361F5E7436C0268CA
:10348C0043F00103DBB21361EEE790F83D30DBB2A1
:10349C00212B06D0436C026843F00103DBB21361AD
:1034AC00E2E7436C026803F0FE031361DCE7036D93
:1034BC00012BD9D1436CC3F3C813026803F0060384
:1034CC0043F0F1031361CFE7436C0268DBB2136185
:1034DC000020704710B48DB090F83E30DAB2C16A5B
:1034EC00046B90F83D30DBB2222B0BD000230B93F6
:1034FC0003685A690B929B690B930B9B00200DB0D0
:10350C0010BC7047036D0BB9402A17D0036D1BB963
:10351C000369B3F5404F19D0438D9BB2002B25D1D5
:10352C00039303685A6903929A690392039A1A687F
:10353C0042F400721A6000230365DFE7019303680D
:10354C005A6901929B690193019BD7E7002302936F
:10355C0003685A6902929A690292029A1A6842F4B2
:10356C0080721A60036D01330365C7E7438D9BB20C
:10357C00012B1AD0438D9BB2022B6BD002681368BF
:10358C0043F48063136003685A6812F4006F03D02D
:10359C005A6842F480525A6000230A9303685A69AD
:1035AC000A929B690A930A9BC5E711F5803F16D0D6
:1035BC0004293DD008293BD0122C39D0C36A022BE8
:1035CC0030D00268136823F48063136000230693E1
:1035DC0003685A6906929B690693069BABE70268DF
:1035EC00136823F48063136003685A6812F4006F45
:1035FC000CD01A6822F480621A60002304930368CA
:10360C005A6904929B690493049B94E700220592E7
:10361C005A6905929A690592059A1A6842F40072E1
:10362C001A6088E70268136843F480631360CDE77F
:10363C000268136823F48063136000230793036804
:10364C005A6907929A690792079A1A6842F40072AB
:10365C001A6070E7C36A022B1BD00268136843F42C
:10366C00006313600023089303685A6908929A69EF
:10367C000892089A1A6822F480621A6003685A68E1
:10368C0012F4006F3FF457AF5A6842F480525A60FC
:10369C0051E70268136843F48063136000230993B5
:1036AC0003685A6909929B690993099BE6E7438D64
:1036BC009BB24BB1436A5A1C426202681B7813617D
:1036CC00438D013B9BB2438500207047438D9BB2D9
:1036DC004BB103681A69436A591C41621A70438DD5
:1036EC00013B9BB243850020704730B482B090F808
:1036FC003D40E4B2282C34D1002936D0002A36D0F3
:10370C0090F83C40012C34D0012480F83C400468F3
:10371C00256815F0010F03D1256845F001052560DA
:10372C0005682C6824F400642C60292480F83D4042
:10373C00202480F83E400024046441624285C36228
:10374C00438D0385019403685A6901929A69019229
:10375C00019A80F83C405A6842F4E0625A60204674
:10376C0000E0022002B030BC70470120FAE70120D3
:10377C00F8E70220F6E730B482B090F83D40E4B2AE
:10378C00282C34D1002936D0002A36D090F83C4071
:10379C00012C34D0012480F83C400468256815F0D5
:1037AC00010F03D1256845F00105256005682C68DB
:1037BC0024F400642C602A2480F83D40202480F8F6
:1037CC003E400024046441624285C362438D0385FC
:1037DC00019403685A6901929A690192019A80F8DE
:1037EC003C405A6842F4E0625A60204600E00220F5
:1037FC0002B030BC70470120FAE70120F8E7022044
:10380C00F6E790F83D30DBB2202B01D00220704758
:10381C00282380F83D3003681A6812F0010F03D199
:10382C001A6842F001021A600268136843F480635C
:10383C0013600268536843F4407353600020704770
:10384C007047704708B590F83D30DAB2438D9BB2A3
:10385C0073B1436A591C416201681B780B61438D3B
:10386C00013B9BB24385438D9BB20BB9292A01D0F6
:10387C00002008BD0268536823F480635360212341
:10388C000363282380F83D3002F0DFFAF0E790F86C
:10389C003D30DAB2438D9BB2F3B110B503681969B0
:1038AC00436A5C1C44621970438D013B9BB2438597
:1038BC00438D9BB20BB92A2A01D0002010BD02689F
:1038CC00536823F48063536022230363282380F816
:1038DC003D3002F0A0FAF0E70020704708B503680D
:1038EC009A6912F0040F09D000219B6913F0800F24
:1038FC0006D1828902F04AFA002008BD0121F4E7C2
:10390C00028BF7E708B590F83D30DBB2C26A042AA7
:10391C0001D0082A01D1282B07D0212B1FD00368F6
:10392C006FF480625A61002008BD1A4BC3620268B2
:10393C00536823F4E063536003686FF480625A6148
:10394C000268136823F4806313600023036320224E
:10395C0080F83D2080F83E3002F041FAE3E70D4B51
:10396C00C36221230363202380F83D30002380F8B9
:10397C003E300268536823F4E063536003686FF4CD
:10398C0080625A610268136823F48063136002F04A
:10399C005CFAC8E70000FFFF704710B590F83D30A7
:1039AC00DBB290F83E20D2B2C46A018D09B9212B4A
:1039BC0005D0212B3CD0402A38D0002010BD042C3F
:1039CC0004D0082C02D014F5803F19D1026853683A
:1039DC0023F4E06353600268136843F400731360CC
:1039EC0000230363202380F83D3090F83E30DBB297
:1039FC00402B15D0002380F83E30FFF721FFDCE789
:103A0C000268536823F4E0635360112303630023BB
:103A1C0080F83E30202380F83D30FFF711FFCCE7D3
:103A2C00002380F83E30FFF7B7FFC6E7222BC4D146
:103A3C00438D9BB22BB90268536823F480635360A7
:103A4C00BBE790F83E30DBB2402B0AD0436A5A1CDD
:103A5C00426202681B781361438D013B9BB2438524
:103A6C00ABE7036D9BB9C36C012B08D0836CC3F31C
:103A7C00072302681361036D013303659DE7836CB3
:103A8C000268DBB21361036D0233036595E7036DC6
:103A9C00012B17D0036D022B8FD190F83D30DBB288
:103AAC00222B17D090F83D30DBB2212B85D1436A05
:103ABC005A1C426202681B781361438D013B9BB216
:103ACC0043857AE7836C0268DBB21361036D0133C3
:103ADC00036572E70268136843F4807313606CE744
:103AEC0008B5C26A90F83D30DBB2212B01D0002022
:103AFC0008BD438D9BB253B1436A5A1C42620268A3
:103B0C001B781361438D013B9BB24385EFE7042A7D
:103B1C0004D0082A02D012F5803F19D102685368EC
:103B2C0023F4E06353600268136843F4007313607A
:103B3C0000230363202380F83D3090F83E30DBB245
:103B4C00402B15D0002380F83E30FFF779FECEE7EE
:103B5C000268536823F4E06353601123036300236A
:103B6C0080F83E30202380F83D30FFF769FEBEE739
:103B7C00002380F83E30FFF70FFFB8E7704708B519
:103B8C0090F83D30DBB2222B01D0002008BD438DD4
:103B9C009BB2032B0AD903681A69436A591C416208
:103BAC001A70438D013B9BB24385EEE7023B012B20
:103BBC0026D9C36A022B3CD00268136823F48063B5
:103BCC0013600268536823F4E063536003681A6956
:103BDC00436A591C41621A70438D013B9BB2438569
:103BEC00202380F83D300023036390F83E30DBB295
:103BFC00402B24D0002380F83E30FFF722FEC4E790
:103C0C00C36A022B0FD00268136823F4806313601D
:103C1C000268136843F4006313600268536823F46A
:103C2C0080635360B1E70268136843F480631360E8
:103C3C00F3E70268136843F480631360C1E7002361
:103C4C0080F83E30FFF79AFF9FE708B5C26A438DB4
:103C5C009BB2032B0FD0438D9BB2022B22D0036857
:103C6C001A69436A591C41621A70438D013B9BB21D
:103C7C004385002008BD042A04D0082A02D012F57E
:103C8C00803F04D10268136823F4806313600368D7
:103C9C001A69436A591C41621A70438D013B9BB2ED
:103CAC004385E6E7042A17D0082A15D012F5803F81
:103CBC0012D0022A0AD00268136823F480631360BE
:103CCC000268536823F4407353600FE00268136872
:103CDC0043F480631360F3E70268536823F4407382
:103CEC0053600268136843F40073136003681A6925
:103CFC00436A591C41621A70438D013B9BB2438548
:103D0C0003681A69436A591C41621A70438D013B5E
:103D1C009BB24385202380F83D300023036390F849
:103D2C003E30DBB2402B05D0002380F83E30FFF74D
:103D3C0088FD9EE7002380F83E30FFF71FFF98E7D1
:103D4C007047000010B5044690F83D30293B012B1C
:103D5C0036D990F83D30DBB2602B07D003685B6836
:103D6C0013F4006F02D1202380F83D30002323632D
:103D7C0084F83E302268136823F4006313602368D0
:103D8C005A6812F4006F3ED05A6822F400625A60EE
:103D9C00636B93F82120012A18D03A4A5A63606B5E
:103DAC00FFF706FA00283FD02268136823F00103BE
:103DBC001360202384F83D30606B436B984733E0ED
:103DCC0000230363282380F83D30D3E7A36B2D4AEF
:103DDC005A63A06BFFF7ECF930B323685A6912F001
:103DEC00400F04D01A69636A591C61621A70226808
:103DFC00136823F001031360202384F83D30A06B7B
:103E0C00436B984710E094F83D20D2B2602A11D051
:103E1C005A6912F0400F04D01A69636A591C616226
:103E2C001A70204602F018F894F83D30DBB2282BBB
:103E3C0017D010BD202284F83D20002222645A693C
:103E4C0012F0400F04D01A69636A591C61621A702F
:103E5C002268136823F0010313602046FFF770FFFC
:103E6C00E2E7236C13F0040FE3D0074BE36200236B
:103E7C002363202284F83D2084F83E30204601F054
:103E8C00AEFFD6E7DD4100080000FFFF10B582B0A1
:103E9C0090F83D30DBB201684A6822F4E0624A6077
:103EAC0000220192026851690191116841F00101EF
:103EBC001160019A01680A6822F480620A60016844
:103ECC004A6812F4006F14D090F83D20D2B2222A26
:103EDC000AD090F83D20D2B22A2A05D0426B126843
:103EEC00526892B2428504E0826B1268526892B2B8
:103EFC004285428D92B2F2B14A6912F0040F08D099
:103F0C000969426A541C44621170428D013A92B2A2
:103F1C0042850268516911F0400F08D01169426A5C
:103F2C00541C44621170428D013A92B24285026C6B
:103F3C0042F004020264026CA2B9282B15D02A2B81
:103F4C0013D0292B11D0026B222A01D0222B17D18E
:103F5C0000230363202280F83D2080F83E3001F0DE
:103F6C005AFF0DE0FFF7EEFE0AE0074BC362002399
:103F7C000363202280F83D2080F83E3001F02FFFB3
:103F8C00002002B010BD00BF0000FFFFF8B50546D1
:103F9C0003689F695C695E6890F83E30DBB2102B59
:103FAC0025D0402B23D04C4B234013B116F4007F6B
:103FBC006ED14A4B234013B116F4007F6BD1484BA2
:103FCC003B40002B6FD0474B234033B116F4806F2E
:103FDC0003D0454B2340002B61D0434B234053B3BC
:103FEC0016F4007F27D02846FFF761FB23E014F07E
:103FFC00011F02D016F4007F1ED13C4B234013B19D
:10400C0016F4007F1CD1344B234013B116F4007FFF
:10401C001AD1334B3B401BB3324B23402BB116F41C
:10402C00806F02D0304B234093B12F4B234013B100
:10403C0016F4007F10D1F8BD2846FFF701FAE8E727
:10404C002846FFF741FAE4E72846FFF743FAE0E792
:10405C002846FFF7A2FCEEE72846FFF741FDEAE70A
:10406C00234B23402BB116F4806F02D01E4B234000
:10407C0053B11D4B2340002BDDD016F4007FDAD05A
:10408C002846FFF7E2FDD6E72846FFF778FDD2E792
:10409C00FFF724FCCFE72846FFF7F8FECBE72846CE
:1040AC00FFF7D0FBC7E7124B23402BB116F4806F00
:1040BC0002D00D4B234053B10B4B2340002BBAD0F5
:1040CC0016F4007FB7D02846FFF700FBB3E728466D
:1040DC00FFF7DDFBAFE700BF02000100100001009D
:1040EC000400100080000100040001000800010021
:1040FC004000010070B5044603685D695E68334A90
:10410C0015420ED016F4807F0BD0026C42F00102E7
:10411C0002646FF480725A610268136843F40043BE
:10412C00136015F4813F0AD016F4807F07D0236CFE
:10413C0043F00203236423686FF400725A6115F490
:10414C00823F1AD016F4807F17D094F83E30DBB241
:10415C00628D91B294F83D20D2B2206B202B1DD0F1
:10416C00236C43F00403236494F83E30DBB2102B31
:10417C0022D023686FF480625A6115F4843F0AD010
:10418C0016F4807F07D0236C43F008032364236864
:10419C006FF400625A61236CA3B970BD0029DFD1A2
:1041AC00212A05D0292A03D0282AD9D12128D7D1D0
:1041BC002046FFF7A7FBE0E72268136843F400737F
:1041CC001360D6E72046FFF7BDFDE6E700010100CE
:1041DC0008B5406A0268136823F4806313600023F7
:1041EC004385426B5363826B536390F83D30DBB273
:1041FC00602B0DD0202380F83D30002380F83E301A
:10420C000268136823F00103136001F025FE08BD5A
:10421C00202380F83D30002380F83E300364026890
:10422C00136823F001031360FFF78AFDEFE700002A
:10423C0082B0084B1B68084AA2FB03235B0A00FBF5
:10424C0003F0019000BF019B5A1E0192002BF9D183
:10425C0002B0704788000020D34D621070B582B058
:10426C000446036813F0010F2CD0AB4B5B6803F0D2
:10427C000C03042B1DD0A84B5B6803F00C03082B1C
:10428C0012D06368B3F5803F41D0002B55D103F1B8
:10429C00804303F504331A6822F480321A601A68DA
:1042AC0022F480221A6037E09B4B5B6813F4803F4A
:1042BC00E7D0994B1B6813F4003F03D06368002BC5
:1042CC0000F0AE81236813F0020F75D0924B5B683F
:1042DC0013F00C0F5FD0904B5B6803F00C03082BB2
:1042EC0054D02369002B00F089808C4B01221A607A
:1042FC00FEF712FE0546884B1B6813F0020F74D1B3
:10430C00FEF70AFE401B0228F5D903208DE1824AF4
:10431C00136843F480331360636843B3FEF7FCFD0A
:10432C0005467D4B1B6813F4003FCBD1FEF7F4FD23
:10433C00401B6428F5D9032077E1B3F5A02F09D0F1
:10434C00754B1A6822F480321A601A6822F48022A3
:10435C001A60E1E703F18043A3F53C331A6842F499
:10436C0080221A601A6842F480321A60D4E7FEF791
:10437C00D3FD0546684B1B6813F4003FA2D0FEF733
:10438C00CBFD401B6428F5D903204EE1624B5B68E2
:10439C0013F4803FA5D1604B1B6813F0020F03D0C0
:1043AC002369012B40F03E815B4A136823F0F8032C
:1043BC00616943EAC1031360236813F0080F32D01C
:1043CC00A369002B5BD0564B01221A60FEF7A4FDAB
:1043DC000546514B5B6A13F0020F21D1FEF79CFD91
:1043EC00401B0228F5D903201FE14B4A136823F028
:1043FC00F803616943EAC1031360DDE7474B002210
:10440C001A60FEF789FD0546434B1B6813F0020F3B
:10441C00D2D0FEF781FD401B0228F5D9032004E120
:10442C000120FFF705FF236813F0040F00F09880BC
:10443C00394BDB6913F0805F33D1374BDA6942F0CB
:10444C008052DA61DB6903F080530193019B0125F3
:10445C00344B1B6813F4807F25D0E368012B36D0D6
:10446C00002B4CD103F1804303F504331A6A22F07C
:10447C0001021A621A6A22F004021A622CE0284B1A
:10448C0000221A60FEF748FD0546234B5B6A13F0C9
:10449C00020FC8D0FEF740FD401B0228F5D90320BF
:1044AC00C3E00025D4E71F4A136843F480731360FC
:1044BC00FEF732FD06461B4B1B6813F4807FCCD1F4
:1044CC00FEF72AFD801B6428F5D90320ADE0124AC3
:1044DC00136A43F001031362E3687BB3FEF71CFD20
:1044EC0006460D4B1B6A13F0020F38D1FEF714FD74
:1044FC00801B41F288339842F3D9032095E0052BB9
:10450C0012D0054B1A6A22F001021A621A6A22F0C2
:10451C0004021A62E0E700BF0010024000004242B1
:10452C008004424200700040424B1A6A42F004027E
:10453C001A621A6A42F001021A62CDE7FEF7ECFC2D
:10454C0006463C4B1B6A13F0020F08D0FEF7E4FC46
:10455C00801B41F288339842F3D9032065E0E5B91A
:10456C00E369002B60D0334A526802F00C02082A2F
:10457C005DD0022B17D0304B00221A60FEF7CCFC1A
:10458C0004462C4B1B6813F0007F47D0FEF7C4FC8D
:10459C00001B0228F5D9032047E0264AD36923F0F3
:1045AC008053D361DCE7244B00221A60FEF7B4FC85
:1045BC000546204B1B6813F0007F06D0FEF7ACFCC1
:1045CC00401B0228F5D903202FE0236AB3F5803F66
:1045DC001AD018494B6823F47413226A606A024398
:1045EC0013434B60144B01221A60FEF795FC0446F2
:1045FC00104B1B6813F0007F0ED1FEF78DFC001BD7
:10460C000228F5D9032010E00A4A536823F400333A
:10461C00A1680B435360DCE7002006E0002004E0B7
:10462C00012002E0012000E0002002B070BD01205A
:10463C00FBE700BF001002406000424210B487B09C
:10464C00164C94E80F000DF1180C0CE90F00238A9E
:10465C00ADF80430124B5B6803F00C02082A03D04F
:10466C00104807B010BC7047C3F38342624412F881
:10467C00102C13F4803F0CD0094B5B68C3F3404300
:10468C00634413F8143C074800FB02F0B0FBF3F052
:10469C00E7E7054800FB02F0E3E700BFFC74000805
:1046AC000010024000127A0000093D00624B1B68AA
:1046BC0003F007038B420BD25F4A136823F0070306
:1046CC000B431360136803F007038B4240F0AE807A
:1046DC0070B5036813F0020F17D013F0040F04D059
:1046EC00564A536843F4E0635360036813F0080FB1
:1046FC0004D0524A536843F4605353604F4A536892
:10470C0023F0F0038468234353600D46044603688A
:10471C0013F0010F52D04368012B23D0022B28D069
:10472C00464A126812F0020F00F0828043494A6830
:10473C0022F0030213434B60FEF7EEFB0646636860
:10474C00012B1DD0022B2AD03C4B5B6813F00C0FB5
:10475C0034D0FEF7E1FB801B41F288339842F3D949
:10476C00032062E0354A126812F4003FDED10120CA
:10477C005BE0324A126812F0007FD7D1012054E07E
:10478C002E4B5B6803F00C03042B17D0FEF7C4FB15
:10479C00801B41F288339842F2D9032045E0274B25
:1047AC005B6803F00C03082B08D0FEF7B5FB801BED
:1047BC0041F288339842F2D9032036E01E4B1B6835
:1047CC0003F00703AB420AD91B4A136823F0070313
:1047DC002B431360136803F00703AB422AD1236801
:1047EC0013F0040F06D0154A536823F4E063E16814
:1047FC000B435360236813F0080F07D00F4A53681C
:10480C0023F46053216943EAC1035360FFF716FF99
:10481C000A4B5B68C3F30313094AD35CD840094BBA
:10482C0018600020FEF734FB002070BD012070479B
:10483C000120FAE70120F8E70020024000100240B6
:10484C00EC7E000888000020014B1868704700BF00
:10485C008800002008B5FFF7F7FF044B5B68C3F333
:10486C000223034AD35CD84008BD00BF00100240AD
:10487C00FC7E000808B5FFF7E7FF044B5B68C3F349
:10488C00C223034AD35CD84008BD00BF00100240CD
:10489C00FC7E000810B5044603681A6812F0020F7B
:1048AC0003D05B6813F0020F06D1074B4FF40032B4
:1048BC005A610123637410BD01F07CF923686FF019
:1048CC0002025A60F1E700BF0004014010B5044633
:1048DC00022380F83D300368196A41F2111211422B
:1048EC0008D1196A40F24442114203D11A6822F0ED
:1048FC0001021A60204600F0D7FC002084F83D002D
:10490C0084F83C0010BD70477047704710B50446E2
:10491C0003681A6912F0020F11D0DA6812F0020F54
:10492C000DD06FF002021A610123037703689B69B3
:10493C0013F0030F70D0FFF7E6FF002323772368F3
:10494C001A6912F0040F12D0DA6812F0040F0ED0AC
:10495C006FF004021A610223237723689B6913F416
:10496C00407F5FD02046FFF7CEFF002323772368DC
:10497C001A6912F0080F12D0DA6812F0080F0ED074
:10498C006FF008021A61042323772368DB6913F0A4
:10499C00030F4ED02046FFF7B6FF00232377236882
:1049AC001A6912F0100F12D0DA6812F0100F0ED034
:1049BC006FF010021A61082323772368DB6913F464
:1049CC00407F3DD02046FFF79EFF002323772368CE
:1049DC001A6912F0010F03D0DA6812F0010F36D108
:1049EC0023681A6912F0800F03D0DA6812F0800F76
:1049FC0034D123681A6912F0400F03D0DA6812F030
:104A0C00400F32D123681A6912F0200F03D0DA68F4
:104A1C0012F0200F30D110BD01F02EF92046FFF717
:104A2C0073FF8AE7204601F027F92046FFF76CFF59
:104A3C009BE7204601F020F92046FFF765FFACE725
:104A4C00204601F019F92046FFF75EFFBDE76FF035
:104A5C0001021A61204601F036F9C1E76FF08002BD
:104A6C001A61204600F083F8C3E76FF040021A6128
:104A7C002046FFF74AFFC5E76FF020021A61204677
:104A8C0000F074F8C7E710B4012303FA01F4036AC9
:104A9C0023EA04030362036A8A401343036210BCD3
:104AAC007047000010B5044600220068FFF7EBFFCA
:104ABC002368134A934213D02368196A41F21112E6
:104ACC00114208D1196A40F24442114203D11A68CA
:104ADC0022F001021A60012384F83D30002010BD41
:104AEC00196A41F211121142E6D1196A40F244429C
:104AFC001142E1D15A6C22F400425A64DCE700BF47
:104B0C00002C014010B4042303FA01F4036A23EAD5
:104B1C0004030362036A8A401343036210BC7047A8
:104B2C0010B5044600220068FFF7ECFF2368196AF1
:104B3C0041F21112114208D1196A40F24442114259
:104B4C0003D15A6C22F400425A642368196A41F268
:104B5C001112114208D1196A40F24442114203D198
:104B6C001A6822F001021A60002010BD70477047CD
:104B7C000268D36823F49073D3600268536923F0FE
:104B8C0001035361202380F83A30704790F8393094
:104B9C00DBB2212B01D0022070478368B3F5805F14
:104BAC0016D0036A5A1C02621A7803685A60C38CC6
:104BBC00013B9BB2C3844BB90268D36823F08003DA
:104BCC00D3600268D36843F04003D3600020704781
:104BDC00036A1B880268C3F30803536003691BB99B
:104BEC00036A02330362E2E7036A01330362DEE71E
:104BFC002DE9F84305460268136923F44053C16854
:104C0C000B431361836802691343426913430168C0
:104C1C00CA6822F4B05222F00C021343CB60026833
:104C2C00536923F4407381690B4353610268594BF8
:104C3C009A4257D0FFF70EFE00EB800000EB80008D
:104C4C006C68A400B0FBF4F4534FA7FB0434640964
:104C5C002601FFF7FFFD00EB800000EB80006C6885
:104C6C00A400B0FBF4F9FFF7F5FD00EB800000EBBE
:104C7C0080006C68A400B0FBF4F4A7FB0434640956
:104C8C004FF0640808FB149424013234A7FB04345D
:104C9C00640904F0F0043444FFF7DCFD00EB800001
:104CAC0000EB80006E68B600B0FBF6F6FFF7D2FDA5
:104CBC0000EB800000EB80006B689B00B0FBF3F016
:104CCC00A7FB0030400908FB10684FEA081808F1F0
:104CDC003208A7FB0837C7F343172B6827449F609C
:104CEC00BDE8F883FFF7C6FD00EB800000EB800009
:104CFC006C68A400B0FBF4F4274FA7FB04346409E0
:104D0C002601FFF7B7FD00EB800000EB80006C681C
:104D1C00A400B0FBF4F9FFF7ADFD00EB800000EB55
:104D2C0080006C68A400B0FBF4F4A7FB04346409A5
:104D3C004FF0640808FB149424013234A7FB0434AC
:104D4C00640904F0F0043444FFF794FD00EB800098
:104D5C0000EB80006E68B600B0FBF6F6FFF78AFD3C
:104D6C0000EB800000EB80006B689B00B0FBF3F065
:104D7C00A7FB0030400908FB10684FEA081808F13F
:104D8C003208A7FB0837C7F343172B6827449F60EB
:104D9C00A6E700BF003801401F85EB512DE9F0411B
:104DAC0005460F4616469846069C2B681B6837EA44
:104DBC0003030CBF01230023B3421DD1B4F1FF3F09
:104DCC00F3D02CB1FEF7A8F8A0EB0800A042ECD968
:104DDC002A68D36823F4D073D3602A68536923F00C
:104DEC0001035361202385F8393085F83A300023CC
:104DFC0085F83830032000E00020BDE8F0817047D2
:104E0C0058B310B5044690F839300BB3242384F80A
:104E1C0039302268D36823F40053D3602046FFF75F
:104E2C00E7FE2268136923F49043136122685369E7
:104E3C0023F02A0353612268D36843F40053D360F0
:104E4C000020E063202384F8393084F83A3010BD18
:104E5C0080F83830FFF7D3FFD8E7012070472DE9F1
:104E6C00F04182B01E4690F83930DBB2202B55D180
:104E7C0004460D469046002955D0002A55D090F88E
:104E8C003830012B53D0012380F838300023C36312
:104E9C00212380F83930FEF73FF80746A4F8248028
:104EAC00A4F8268010E000963B4600228021204684
:104EBC00FFF774FF00283CD12B882268C3F308034A
:104ECC0053602369C3B90235E38C9BB2B3B1E38C55
:104EDC00013B9BB2E384A368B3F5805FE3D00096FB
:104EEC003B46002280212046FFF758FF18BB15F8DF
:104EFC00012B23685A60E7E70135E5E700963B464E
:104F0C00002240212046FFF749FF0346A8B9202282
:104F1C0084F83920002284F8382000E00223184657
:104F2C0002B0BDE8F0810123F9E70123F7E7022382
:104F3C00F5E70323F3E70323F1E70323EFE790F807
:104F4C003930DBB2202B16D1B9B1C2B190F8383060
:104F5C00012B16D001628284C2840023C3632122F8
:104F6C0080F8392080F838300168CA6842F0800235
:104F7C00CA60184670470220704701207047012014
:104F8C0070470220704790F83A30DBB2202B20D1CA
:104F9C0009B312B390F83830012B20D0816282858E
:104FAC00C2850023C363222280F83A2080F838306F
:104FBC000168CA6842F48072CA6001684A6942F0AA
:104FCC0001024A610168CA6842F02002CA601846B0
:104FDC007047022070470120704701207047022063
:104FEC00704708B50168CB6823F04003CB602023E1
:104FFC0080F8393001F039F9002008BD08B590F877
:10500C003A30DBB2222B45D18368B3F5805F0ED0EA
:10501C00036903BB03685A68836A591C81621A705E
:10502C00C38D013B9BB2C385F3B1002008BD826ADE
:10503C00036943B903685B68C3F308031380836A8D
:10504C0002338362ECE703685B68DBB21380836A2C
:10505C0001338362E4E703685B68826A511C8162F6
:10506C0003F07F031370DBE70268D36823F020039F
:10507C00D3600268D36823F48073D36002685369E9
:10508C0023F001035361202380F83A3001F0E6F855
:10509C000020CBE70220C9E710B50446026813686C
:1050AC00D168526913F00F0005D113F0200F02D014
:1050BC0011F0200F13D128B112F0010213D111F409
:1050CC00907F10D113F0800F02D011F0800F69D1B6
:1050DC0013F0400F02D011F0400F67D110BD2046E5
:1050EC00FFF78CFFFAE713F0010F06D011F4807F65
:1050FC0003D0E06B40F00100E06313F0040F04D028
:10510C001AB1E06B40F00200E06313F0020F04D020
:10511C001AB1E06B40F00400E06313F0080F04D008
:10512C001AB1E26B42F00802E263E26B002AD5D0BE
:10513C0013F0200F02D011F0200F21D123685B69EE
:10514C0003F04003E26B12F0080F00D123B32046AA
:10515C00FFF70EFD23685A6912F0400F18D05A69F8
:10516C0022F040025A61636B73B1124A5A63606B4E
:10517C00FEF71EF80028B1D0606B436B9847ADE783
:10518C002046FFF73BFFD9E7204601F083F8A5E75F
:10519C00204601F07FF8A1E7204601F07BF80023C0
:1051AC00E3639BE72046FFF7F1FC97E72046FFF708
:1051BC0018FF93E7C551000808B5406A0023C38562
:1051CC00C38401F067F808BD90F8393090F83A00C4
:1051DC001843704786B0042841D8DFE800F003106C
:1051EC001C2834001F4B9A6942F004029A619B6997
:1051FC0003F004030193019B1B4806B07047194B45
:10520C009A6942F008029A619B6903F008030293C1
:10521C00029B1648F1E7134B9A6942F010029A610F
:10522C009B6903F010030393039B1148E5E70D4BB7
:10523C009A6942F020029A619B6903F0200304935F
:10524C00049B0C48D9E7074B9A6942F040029A61DB
:10525C009B6903F040030593059B0748CDE70020AD
:10526C00CBE700BF0010024000080140000C0140D9
:10527C0000100140001401400018014008B5094914
:10528C0000F086FCC0F3C430032805D0042805D0F8
:10529C00022805D0002008BD0820FCE70C20FAE706
:1052AC000420F8E7C87B000808B500F013FD08BD22
:1052BC0030B591B00546134900F03FFC0090D0B1D9
:1052CC002846FFF7DBFF044638B1042805D0082830
:1052DC0003D00C2801D018280DD10A49284600F01B
:1052EC0057FC10F4801F08D021466846FFF718FCC5
:1052FC006846FFF7EBFA11B030BD21466846FFF760
:10530C00D1FBF5E7C87B000808B5FDF705FE08BD25
:10531C00704708B5FDF7F4FDFDF745FFFFF7F8FF03
:10532C0008BD00000C4BDB6813F0807F04D10A4AE7
:10533C00D36843F08073D360084B00225A601A681C
:10534C0042F001021A6000BF00BF00BF5868B0FAFB
:10535C0080F04009704700BFF0ED00E0001000E065
:10536C0008B5FFF7DFFFFDF7B9FDFBF715FA08BD30
:10537C000023012803D040080133DBB2F9E71846BB
:10538C007047000010B5074C074B9C4208D0143CEA
:10539C00E368002BF8D0201D032201469847F3E761
:1053AC0010BD00BF18080020D8060020012800D02E
:1053BC00704708B54FF6FF73994200D008BD234BD8
:1053CC0006221A700020D86007221A75186208226B
:1053DC0083F828205863092283F83C2098640A2219
:1053EC0083F85020D865172283F86420186783F857
:1053FC007820C3F8840083F88C20C3F8980083F8D5
:10540C00A020C3F8AC0083F8B420C3F8C000282255
:10541C0083F8C820C3F8D40083F8DC20C3F8E80074
:10542C0083F8F020C3F8FC0083F80421C3F81001C2
:10543C0083F81821C3F8240183F82C21C3F8380110
:10544C00034A044901F032F8B8E700BFD80600203F
:10545C00000000209153000808B50120FDF7E2FF81
:10546C0008BD08B50220FDF7DDFF08BD08B5042016
:10547C00FDF7D8FF08BD08B50820FDF7D3FF08BD20
:10548C0008B51020FDF7CEFF08BD10B52024B4F5EB
:10549C00007F04D8A0B2FDF7C5FF6400F7E710BD8C
:1054AC0010B54FF48064B4F5004F04D8A0B2FDF7EA
:1054BC00B9FF6400F7E710BD08B5836813B1C36882
:1054CC00984708BD02F004F808B5FFF751FF00EB50
:1054DC008000830003481844043083680BB1FFF745
:1054EC00EBFF08BDD806002008B54FF6FF71012070
:1054FC00FFF75CFF08BDB0F1FF3F08D0B1F90030F9
:10550C00B3F1FF3F05D0834205D00C31F6E7002004
:10551C007047002070470120704700002DE9F043D0
:10552C0083B007460D4601F00706C1F30629C0F308
:10553C00031800F00F02AA4B53F82240B0F1FF3FC2
:10554C000ED04046FFF746FE8046012E0DD0032EAE
:10555C0000F29581DFE816F027009A012A009001ED
:10556C004321A04800F05FFBEBE7220E815894FA30
:10557C00A4F3A3B1B3FA83F39B00032000FA03F363
:10558C0021EA030194FAA4F35BB1B3FA83F39B0011
:10559C00032000FA03F30B4348F80230D7E720232B
:1055AC00EAE72023F3E74FF0080970E18E4B9A6984
:1055BC0042F001029A619B6903F001030093009B86
:1055CC0009F1FF33232B00F2C081DFE813F0240034
:1055DC002E00380042004C00560060006A00740037
:1055EC007C00880092009C00A800B200BC00C8009F
:1055FC00D400DE00E800F400FE001101BE01BE0183
:10560C00BE011B012501BE01BE01BE01BE012F0161
:10561C00370141014B01754A536843F0E06343F095
:10562C00010353604FF0090931E1704A536823F0CC
:10563C00010343F0E06353604FF0090927E16B4A23
:10564C00536843F0E06343F0020353604FF00909E1
:10565C001DE1664A536823F0020343F0E063536094
:10566C004FF0090913E1614A536843F0E06343F0DA
:10567C00040353604FF0090909E15C4A536823F0B5
:10568C00040343F0E06353604FF00909FFE0574A0D
:10569C00536843F0E06343F0080353604FF009098B
:1056AC00F5E0524A536823F0080343F0E06353607B
:1056BC004FF00909EBE04D4A536843F0E06343F0C7
:1056CC0030035360E3E0494A536823F0300343F05E
:1056DC00E06343F0100353604FF00909D7E0434AED
:1056EC00536823F0300343F0E06353604FF0090933
:1056FC00CDE03E4A536843F0E06343F0C00353608F
:10570C004FF00909C3E0394A536823F0C00343F052
:10571C00E06343F0400353604FF00909B7E0334AAC
:10572C00536823F0C00343F0E06353604FF0090962
:10573C00ADE02E4A536843F0E06343F4407353608A
:10574C004FF00909A3E0294A536823F4407343F04E
:10575C00E06343F4007353604FF0090997E0234A68
:10576C00536823F4407343F0E06343F48073536055
:10577C004FF009098BE01D4A536823F4407343F042
:10578C00E06353604FF0090981E0184A536843F015
:10579C00E06343F4406353604FF0090977E0134A28
:1057AC00536823F4406343F0E06343F400635360B5
:1057BC004FF009096BE00D4A536823F4406343F042
:1057CC00E06353604FF0090961E0084A536843F005
:1057DC00E06343F4805353604FF0090957E000BF76
:1057EC00AC7E0008547E000800100240000001400E
:1057FC00BB4A536823F4805343F0E06353604FF08B
:10580C00090944E0B64A536843F0E06343F40043AB
:10581C0053604FF009093AE0B14A536823F400434E
:10582C0043F0E06353604FF0090930E0AC4A536831
:10583C0023F0E06353604FF0090928E0A84A53684D
:10584C0023F0E06343F0807353604FF009091EE0CE
:10585C00A34A536823F0E06343F0007353604FF0A6
:10586C00090914E09E4A536823F0E06343F0806317
:10587C0053604FF009090AE04FF0000907E06A2174
:10588C00984800F0D0F94FF0000900E0B146210E25
:10589C0058F8013094FAA4F2002A59D0B2FA82F2E4
:1058AC0092000F2000FA02F223EA020294FAA4F307
:1058BC00002B4FD0B3FA83F39B0009FA03F3134385
:1058CC0048F80130013E012E46D9C5F30115230ECF
:1058DC0058F8033094FAA4F2002A74D0B2FA82F287
:1058EC0092000F2101FA02F21A4094FAA4F3002B51
:1058FC006BD0B3FA83F39B0022FA03F3012D66D02D
:10590C00022D00F09880082B40F0A080210E58F852
:10591C00012094FAA4F3002B00F0D680B3FA83F3A1
:10592C009B000F2000FA03F322EA030394FAA4F479
:10593C00002C00F0CB80B4FA84F4A400042202FA08
:10594C0004F41C4348F8014080E04FF009099EE73D
:10595C002022A5E72023AFE715F0080F1ED0210E5B
:10596C0058F8012094FAA4F3A3B1B3FA83F39B0083
:10597C00042000FA03F322EA030294FAA4F35BB1C5
:10598C00B3FA83F39B00042000FA03F3134348F8A3
:10599C0001309AE72023EAE72023F3E7200E58F89A
:1059AC00002094FAA4F363B1B3FA83F39B000421AF
:1059BC0001FA03F322EA030394FAA4F248F8003044
:1059CC0083E72023F2E720228AE7202393E7042BA6
:1059DC0010D0D8F80C30240A23EA040394FAA4F467
:1059EC003CB3B4FA84F4012202FA04F41C43C8F860
:1059FC000C402BE0210E58F8012094FAA4F3A3B12B
:105A0C00B3FA83F39B000F2000FA03F322EA03029C
:105A1C0094FAA4F35BB1B3FA83F39B00082000FA69
:105A2C0003F3134348F80130D3E72023EAE720239C
:105A3C00F3E72024D7E7042B27D0D8F80C30240A1E
:105A4C0023EA040394FAA4F4C8F80C30264B9A69A0
:105A5C0042F001029A619B6903F001030193019BDF
:105A6C00A7F10D039BB2012B32D90F2F03D0132FAB
:105A7C0001D0142F06D11A4A536823F0E06343F087
:105A8C000073536003B0BDE8F083210E58F8012079
:105A9C0094FAA4F3A3B1B3FA83F39B000F2000FA9A
:105AAC0003F322EA030294FAA4F35BB1B3FA83F38F
:105ABC009B00082000FA03F3134348F80130BCE7BD
:105ACC002023EAE72023F3E7202329E7202434E7E7
